{
  "_format": "hh-sol-artifact-1",
  "contractName": "ZKyotoFaucet",
  "sourceName": "contracts/ZKyotoFaucet.sol",
  "abi": [
    {
      "inputs": [],
      "stateMutability": "nonpayable",
      "type": "constructor"
    },
    {
      "inputs": [
        {
          "internalType": "address",
          "name": "owner",
          "type": "address"
        }
      ],
      "name": "OwnableInvalidOwner",
      "type": "error"
    },
    {
      "inputs": [
        {
          "internalType": "address",
          "name": "account",
          "type": "address"
        }
      ],
      "name": "OwnableUnauthorizedAccount",
      "type": "error"
    },
    {
      "anonymous": false,
      "inputs": [
        {
          "indexed": true,
          "internalType": "address",
          "name": "recipient",
          "type": "address"
        }
      ],
      "name": "FaucetDrained",
      "type": "event"
    },
    {
      "anonymous": false,
      "inputs": [
        {
          "indexed": true,
          "internalType": "address",
          "name": "recipient",
          "type": "address"
        }
      ],
      "name": "FaucetDripped",
      "type": "event"
    },
    {
      "anonymous": false,
      "inputs": [
        {
          "indexed": true,
          "internalType": "address",
          "name": "previousOwner",
          "type": "address"
        },
        {
          "indexed": true,
          "internalType": "address",
          "name": "newOwner",
          "type": "address"
        }
      ],
      "name": "OwnershipTransferred",
      "type": "event"
    },
    {
      "inputs": [],
      "name": "DRIP_AMOUNT",
      "outputs": [
        {
          "internalType": "uint256",
          "name": "",
          "type": "uint256"
        }
      ],
      "stateMutability": "view",
      "type": "function"
    },
    {
      "inputs": [],
      "name": "DRIP_PERIOD_SECONDS",
      "outputs": [
        {
          "internalType": "uint256",
          "name": "",
          "type": "uint256"
        }
      ],
      "stateMutability": "view",
      "type": "function"
    },
    {
      "inputs": [],
      "name": "availableDrips",
      "outputs": [
        {
          "internalType": "uint256",
          "name": "drips",
          "type": "uint256"
        }
      ],
      "stateMutability": "view",
      "type": "function"
    },
    {
      "inputs": [
        {
          "internalType": "address",
          "name": "",
          "type": "address"
        }
      ],
      "name": "claims",
      "outputs": [
        {
          "internalType": "uint256",
          "name": "",
          "type": "uint256"
        }
      ],
      "stateMutability": "view",
      "type": "function"
    },
    {
      "inputs": [
        {
          "internalType": "address",
          "name": "account",
          "type": "address"
        }
      ],
      "name": "drain",
      "outputs": [],
      "stateMutability": "nonpayable",
      "type": "function"
    },
    {
      "inputs": [
        {
          "internalType": "address",
          "name": "to",
          "type": "address"
        }
      ],
      "name": "drip",
      "outputs": [],
      "stateMutability": "nonpayable",
      "type": "function"
    },
    {
      "inputs": [
        {
          "internalType": "address",
          "name": "account",
          "type": "address"
        }
      ],
      "name": "nextDrip",
      "outputs": [
        {
          "internalType": "uint256",
          "name": "",
          "type": "uint256"
        }
      ],
      "stateMutability": "view",
      "type": "function"
    },
    {
      "inputs": [],
      "name": "owner",
      "outputs": [
        {
          "internalType": "address",
          "name": "",
          "type": "address"
        }
      ],
      "stateMutability": "view",
      "type": "function"
    },
    {
      "inputs": [],
      "name": "renounceOwnership",
      "outputs": [],
      "stateMutability": "nonpayable",
      "type": "function"
    },
    {
      "inputs": [
        {
          "internalType": "uint256",
          "name": "_dripAmount",
          "type": "uint256"
        }
      ],
      "name": "setDripAmounts",
      "outputs": [],
      "stateMutability": "nonpayable",
      "type": "function"
    },
    {
      "inputs": [
        {
          "internalType": "uint256",
          "name": "_dripPeriod",
          "type": "uint256"
        }
      ],
      "name": "setDripPeriod",
      "outputs": [],
      "stateMutability": "nonpayable",
      "type": "function"
    },
    {
      "inputs": [
        {
          "internalType": "address",
          "name": "newOwner",
          "type": "address"
        }
      ],
      "name": "transferOwnership",
      "outputs": [],
      "stateMutability": "nonpayable",
      "type": "function"
    },
    {
      "stateMutability": "payable",
      "type": "receive"
    }
  ],
  "bytecode": "0x608060405266b1a2bc2ec500006001556201518060025534801561002257600080fd5b50338061004957604051631e4fbdf760e01b81526000600482015260240160405180910390fd5b61005281610058565b506100a8565b600080546001600160a01b038381166001600160a01b0319831681178455604051919092169283917f8be0079c531659141344cd1fd0a4f28419497f9722a3daafe3b4186f6b6457e09190a35050565b6106a5806100b76000396000f3fe6080604052600436106100ab5760003560e01c80639b1f7f97116100645780639b1f7f971461017e578063c6788bdd14610194578063d6b25846146101c1578063e98890a7146101e1578063ece53132146101f7578063f2fde38b1461021757600080fd5b806324cf0771146100b757806339af961b146100df5780634dfaf7751461010157806367a5cd0614610121578063715018a6146101415780638da5cb5b1461015657600080fd5b366100b257005b600080fd5b3480156100c357600080fd5b506100cc610237565b6040519081526020015b60405180910390f35b3480156100eb57600080fd5b506100ff6100fa3660046105e3565b61024c565b005b34801561010d57600080fd5b506100cc61011c3660046105fc565b610259565b34801561012d57600080fd5b506100ff61013c3660046105fc565b6102b8565b34801561014d57600080fd5b506100ff610414565b34801561016257600080fd5b506000546040516001600160a01b0390911681526020016100d6565b34801561018a57600080fd5b506100cc60025481565b3480156101a057600080fd5b506100cc6101af3660046105fc565b60036020526000908152604090205481565b3480156101cd57600080fd5b506100ff6101dc3660046105e3565b610428565b3480156101ed57600080fd5b506100cc60015481565b34801561020357600080fd5b506100ff6102123660046105fc565b610435565b34801561022357600080fd5b506100ff6102323660046105fc565b610511565b600060015447610247919061062c565b905090565b61025461054f565b600255565b6002546001600160a01b038216600090815260036020526040812054909190610282904261064e565b106102b0576001600160a01b0382166000908152600360205260409020546102aa904261064e565b92915050565b506000919050565b6001600160a01b0381166000908152600360205260409020546102da9061057c565b6103375760405162461bcd60e51b815260206004820152602360248201527f416c726561647920636c61696d656420696e20746865206c617374203234686f60448201526275727360e81b60648201526084015b60405180910390fd5b6001546040516000916001600160a01b038416918381818185875af1925050503d8060008114610383576040519150601f19603f3d011682016040523d82523d6000602084013e610388565b606091505b50509050806103cf5760405162461bcd60e51b815260206004820152601360248201527208cc2d2d8cac840c8e4d2e0e0d2dcce408aa89606b1b604482015260640161032e565b6001600160a01b038216600081815260036020526040808220429055517f15b77122e87b6c2a7a9afcd86d718fe489828e6fd4d686aef3b823179ab04dbf9190a25050565b61041c61054f565b6104266000610593565b565b61043061054f565b600155565b61043d61054f565b6000816001600160a01b03164760405160006040518083038185875af1925050503d806000811461048a576040519150601f19603f3d011682016040523d82523d6000602084013e61048f565b606091505b50509050806104d95760405162461bcd60e51b815260206004820152601660248201527511985a5b195908191c985a5b9a5b99c811985d58d95d60521b604482015260640161032e565b6040516001600160a01b038316907f7c8fc2d32492ea30dc289f81f32ebd6e1bcb12644f56039a3a274a924decc4a190600090a25050565b61051961054f565b6001600160a01b03811661054357604051631e4fbdf760e01b81526000600482015260240161032e565b61054c81610593565b50565b6000546001600160a01b031633146104265760405163118cdaa760e01b815233600482015260240161032e565b60025460009061058c834261064e565b1192915050565b600080546001600160a01b038381166001600160a01b0319831681178455604051919092169283917f8be0079c531659141344cd1fd0a4f28419497f9722a3daafe3b4186f6b6457e09190a35050565b6000602082840312156105f557600080fd5b5035919050565b60006020828403121561060e57600080fd5b81356001600160a01b038116811461062557600080fd5b9392505050565b60008261064957634e487b7160e01b600052601260045260246000fd5b500490565b818103818111156102aa57634e487b7160e01b600052601160045260246000fdfea2646970667358221220d0e93f61ca271cdd0f8ef74f00a2e96692efc176d2a8bd2116be0da73e8e2d0464736f6c63430008140033",
  "linkReferences": {},
  "deployedLinkReferences": {}
}