{
  "contracts/ZKyotoFaucet.sol": {
    "ZKyotoFaucet": {
      "abi": [
        {
          "inputs": [],
          "stateMutability": "nonpayable",
          "type": "constructor"
        },
        {
          "inputs": [
            {
              "internalType": "address",
              "name": "owner",
              "type": "address"
            }
          ],
          "name": "OwnableInvalidOwner",
          "type": "error"
        },
        {
          "inputs": [
            {
              "internalType": "address",
              "name": "account",
              "type": "address"
            }
          ],
          "name": "OwnableUnauthorizedAccount",
          "type": "error"
        },
        {
          "anonymous": false,
          "inputs": [
            {
              "indexed": true,
              "internalType": "address",
              "name": "recipient",
              "type": "address"
            }
          ],
          "name": "FaucetDrained",
          "type": "event"
        },
        {
          "anonymous": false,
          "inputs": [
            {
              "indexed": true,
              "internalType": "address",
              "name": "recipient",
              "type": "address"
            }
          ],
          "name": "FaucetDripped",
          "type": "event"
        },
        {
          "anonymous": false,
          "inputs": [
            {
              "indexed": true,
              "internalType": "address",
              "name": "previousOwner",
              "type": "address"
            },
            {
              "indexed": true,
              "internalType": "address",
              "name": "newOwner",
              "type": "address"
            }
          ],
          "name": "OwnershipTransferred",
          "type": "event"
        },
        {
          "inputs": [],
          "name": "DRIP_AMOUNT",
          "outputs": [
            {
              "internalType": "uint256",
              "name": "",
              "type": "uint256"
            }
          ],
          "stateMutability": "view",
          "type": "function"
        },
        {
          "inputs": [],
          "name": "DRIP_PERIOD_SECONDS",
          "outputs": [
            {
              "internalType": "uint256",
              "name": "",
              "type": "uint256"
            }
          ],
          "stateMutability": "view",
          "type": "function"
        },
        {
          "inputs": [],
          "name": "availableDrips",
          "outputs": [
            {
              "internalType": "uint256",
              "name": "drips",
              "type": "uint256"
            }
          ],
          "stateMutability": "view",
          "type": "function"
        },
        {
          "inputs": [
            {
              "internalType": "address",
              "name": "",
              "type": "address"
            }
          ],
          "name": "claims",
          "outputs": [
            {
              "internalType": "uint256",
              "name": "",
              "type": "uint256"
            }
          ],
          "stateMutability": "view",
          "type": "function"
        },
        {
          "inputs": [
            {
              "internalType": "address",
              "name": "account",
              "type": "address"
            }
          ],
          "name": "drain",
          "outputs": [],
          "stateMutability": "nonpayable",
          "type": "function"
        },
        {
          "inputs": [
            {
              "internalType": "address",
              "name": "to",
              "type": "address"
            }
          ],
          "name": "drip",
          "outputs": [],
          "stateMutability": "nonpayable",
          "type": "function"
        },
        {
          "inputs": [
            {
              "internalType": "address",
              "name": "account",
              "type": "address"
            }
          ],
          "name": "nextDrip",
          "outputs": [
            {
              "internalType": "uint256",
              "name": "",
              "type": "uint256"
            }
          ],
          "stateMutability": "view",
          "type": "function"
        },
        {
          "inputs": [],
          "name": "owner",
          "outputs": [
            {
              "internalType": "address",
              "name": "",
              "type": "address"
            }
          ],
          "stateMutability": "view",
          "type": "function"
        },
        {
          "inputs": [],
          "name": "renounceOwnership",
          "outputs": [],
          "stateMutability": "nonpayable",
          "type": "function"
        },
        {
          "inputs": [
            {
              "internalType": "uint256",
              "name": "_dripAmount",
              "type": "uint256"
            }
          ],
          "name": "setDripAmounts",
          "outputs": [],
          "stateMutability": "nonpayable",
          "type": "function"
        },
        {
          "inputs": [
            {
              "internalType": "uint256",
              "name": "_dripPeriod",
              "type": "uint256"
            }
          ],
          "name": "setDripPeriod",
          "outputs": [],
          "stateMutability": "nonpayable",
          "type": "function"
        },
        {
          "inputs": [
            {
              "internalType": "address",
              "name": "newOwner",
              "type": "address"
            }
          ],
          "name": "transferOwnership",
          "outputs": [],
          "stateMutability": "nonpayable",
          "type": "function"
        },
        {
          "stateMutability": "payable",
          "type": "receive"
        }
      ],
      "evm": {
        "bytecode": {
          "linkReferences": {},
          "object": "608060405266b1a2bc2ec500006001556201518060025534801561002257600080fd5b50338061004957604051631e4fbdf760e01b81526000600482015260240160405180910390fd5b61005281610058565b506100a8565b600080546001600160a01b038381166001600160a01b0319831681178455604051919092169283917f8be0079c531659141344cd1fd0a4f28419497f9722a3daafe3b4186f6b6457e09190a35050565b6106b8806100b76000396000f3fe6080604052600436106100ab5760003560e01c80639b1f7f97116100645780639b1f7f971461017e578063c6788bdd14610194578063d6b25846146101c1578063e98890a7146101e1578063ece53132146101f7578063f2fde38b1461021757600080fd5b806324cf0771146100b757806339af961b146100df5780634dfaf7751461010157806367a5cd0614610121578063715018a6146101415780638da5cb5b1461015657600080fd5b366100b257005b600080fd5b3480156100c357600080fd5b506100cc610237565b6040519081526020015b60405180910390f35b3480156100eb57600080fd5b506100ff6100fa3660046105f7565b61024c565b005b34801561010d57600080fd5b506100cc61011c366004610610565b610259565b34801561012d57600080fd5b506100ff61013c366004610610565b6102cc565b34801561014d57600080fd5b506100ff610428565b34801561016257600080fd5b506000546040516001600160a01b0390911681526020016100d6565b34801561018a57600080fd5b506100cc60025481565b3480156101a057600080fd5b506100cc6101af366004610610565b60036020526000908152604090205481565b3480156101cd57600080fd5b506100ff6101dc3660046105f7565b61043c565b3480156101ed57600080fd5b506100cc60015481565b34801561020357600080fd5b506100ff610212366004610610565b610449565b34801561022357600080fd5b506100ff610232366004610610565b610525565b6000600154476102479190610639565b905090565b610254610563565b600255565b6001600160a01b03811660009081526003602052604081205442106102c4576001600160a01b03821660009081526003602052604081205461029b904261065b565b905060025481106102af5750600092915050565b806002546102bd919061065b565b9392505050565b506000919050565b6001600160a01b0381166000908152600360205260409020546102ee90610590565b61034b5760405162461bcd60e51b815260206004820152602360248201527f416c726561647920636c61696d656420696e20746865206c617374203234686f60448201526275727360e81b60648201526084015b60405180910390fd5b6001546040516000916001600160a01b038416918381818185875af1925050503d8060008114610397576040519150601f19603f3d011682016040523d82523d6000602084013e61039c565b606091505b50509050806103e35760405162461bcd60e51b815260206004820152601360248201527208cc2d2d8cac840c8e4d2e0e0d2dcce408aa89606b1b6044820152606401610342565b6001600160a01b038216600081815260036020526040808220429055517f15b77122e87b6c2a7a9afcd86d718fe489828e6fd4d686aef3b823179ab04dbf9190a25050565b610430610563565b61043a60006105a7565b565b610444610563565b600155565b610451610563565b6000816001600160a01b03164760405160006040518083038185875af1925050503d806000811461049e576040519150601f19603f3d011682016040523d82523d6000602084013e6104a3565b606091505b50509050806104ed5760405162461bcd60e51b815260206004820152601660248201527511985a5b195908191c985a5b9a5b99c811985d58d95d60521b6044820152606401610342565b6040516001600160a01b038316907f7c8fc2d32492ea30dc289f81f32ebd6e1bcb12644f56039a3a274a924decc4a190600090a25050565b61052d610563565b6001600160a01b03811661055757604051631e4fbdf760e01b815260006004820152602401610342565b610560816105a7565b50565b6000546001600160a01b0316331461043a5760405163118cdaa760e01b8152336004820152602401610342565b6002546000906105a0834261065b565b1192915050565b600080546001600160a01b038381166001600160a01b0319831681178455604051919092169283917f8be0079c531659141344cd1fd0a4f28419497f9722a3daafe3b4186f6b6457e09190a35050565b60006020828403121561060957600080fd5b5035919050565b60006020828403121561062257600080fd5b81356001600160a01b03811681146102bd57600080fd5b60008261065657634e487b7160e01b600052601260045260246000fd5b500490565b8181038181111561067c57634e487b7160e01b600052601160045260246000fd5b9291505056fea2646970667358221220b2dc4201a1dbc012dd55320b615873d81ed1fd99f7b25aeebcbc438ecef2e1c464736f6c63430008140033",
          "opcodes": "PUSH1 0x80 PUSH1 0x40 MSTORE PUSH7 0xB1A2BC2EC50000 PUSH1 0x1 SSTORE PUSH3 0x15180 PUSH1 0x2 SSTORE CALLVALUE DUP1 ISZERO PUSH2 0x22 JUMPI PUSH1 0x0 DUP1 REVERT JUMPDEST POP CALLER DUP1 PUSH2 0x49 JUMPI PUSH1 0x40 MLOAD PUSH4 0x1E4FBDF7 PUSH1 0xE0 SHL DUP2 MSTORE PUSH1 0x0 PUSH1 0x4 DUP3 ADD MSTORE PUSH1 0x24 ADD PUSH1 0x40 MLOAD DUP1 SWAP2 SUB SWAP1 REVERT JUMPDEST PUSH2 0x52 DUP2 PUSH2 0x58 JUMP JUMPDEST POP PUSH2 0xA8 JUMP JUMPDEST PUSH1 0x0 DUP1 SLOAD PUSH1 0x1 PUSH1 0x1 PUSH1 0xA0 SHL SUB DUP4 DUP2 AND PUSH1 0x1 PUSH1 0x1 PUSH1 0xA0 SHL SUB NOT DUP4 AND DUP2 OR DUP5 SSTORE PUSH1 0x40 MLOAD SWAP2 SWAP1 SWAP3 AND SWAP3 DUP4 SWAP2 PUSH32 0x8BE0079C531659141344CD1FD0A4F28419497F9722A3DAAFE3B4186F6B6457E0 SWAP2 SWAP1 LOG3 POP POP JUMP JUMPDEST PUSH2 0x6B8 DUP1 PUSH2 0xB7 PUSH1 0x0 CODECOPY PUSH1 0x0 RETURN INVALID PUSH1 0x80 PUSH1 0x40 MSTORE PUSH1 0x4 CALLDATASIZE LT PUSH2 0xAB JUMPI PUSH1 0x0 CALLDATALOAD PUSH1 0xE0 SHR DUP1 PUSH4 0x9B1F7F97 GT PUSH2 0x64 JUMPI DUP1 PUSH4 0x9B1F7F97 EQ PUSH2 0x17E JUMPI DUP1 PUSH4 0xC6788BDD EQ PUSH2 0x194 JUMPI DUP1 PUSH4 0xD6B25846 EQ PUSH2 0x1C1 JUMPI DUP1 PUSH4 0xE98890A7 EQ PUSH2 0x1E1 JUMPI DUP1 PUSH4 0xECE53132 EQ PUSH2 0x1F7 JUMPI DUP1 PUSH4 0xF2FDE38B EQ PUSH2 0x217 JUMPI PUSH1 0x0 DUP1 REVERT JUMPDEST DUP1 PUSH4 0x24CF0771 EQ PUSH2 0xB7 JUMPI DUP1 PUSH4 0x39AF961B EQ PUSH2 0xDF JUMPI DUP1 PUSH4 0x4DFAF775 EQ PUSH2 0x101 JUMPI DUP1 PUSH4 0x67A5CD06 EQ PUSH2 0x121 JUMPI DUP1 PUSH4 0x715018A6 EQ PUSH2 0x141 JUMPI DUP1 PUSH4 0x8DA5CB5B EQ PUSH2 0x156 JUMPI PUSH1 0x0 DUP1 REVERT JUMPDEST CALLDATASIZE PUSH2 0xB2 JUMPI STOP JUMPDEST PUSH1 0x0 DUP1 REVERT JUMPDEST CALLVALUE DUP1 ISZERO PUSH2 0xC3 JUMPI PUSH1 0x0 DUP1 REVERT JUMPDEST POP PUSH2 0xCC PUSH2 0x237 JUMP JUMPDEST PUSH1 0x40 MLOAD SWAP1 DUP2 MSTORE PUSH1 0x20 ADD JUMPDEST PUSH1 0x40 MLOAD DUP1 SWAP2 SUB SWAP1 RETURN JUMPDEST CALLVALUE DUP1 ISZERO PUSH2 0xEB JUMPI PUSH1 0x0 DUP1 REVERT JUMPDEST POP PUSH2 0xFF PUSH2 0xFA CALLDATASIZE PUSH1 0x4 PUSH2 0x5F7 JUMP JUMPDEST PUSH2 0x24C JUMP JUMPDEST STOP JUMPDEST CALLVALUE DUP1 ISZERO PUSH2 0x10D JUMPI PUSH1 0x0 DUP1 REVERT JUMPDEST POP PUSH2 0xCC PUSH2 0x11C CALLDATASIZE PUSH1 0x4 PUSH2 0x610 JUMP JUMPDEST PUSH2 0x259 JUMP JUMPDEST CALLVALUE DUP1 ISZERO PUSH2 0x12D JUMPI PUSH1 0x0 DUP1 REVERT JUMPDEST POP PUSH2 0xFF PUSH2 0x13C CALLDATASIZE PUSH1 0x4 PUSH2 0x610 JUMP JUMPDEST PUSH2 0x2CC JUMP JUMPDEST CALLVALUE DUP1 ISZERO PUSH2 0x14D JUMPI PUSH1 0x0 DUP1 REVERT JUMPDEST POP PUSH2 0xFF PUSH2 0x428 JUMP JUMPDEST CALLVALUE DUP1 ISZERO PUSH2 0x162 JUMPI PUSH1 0x0 DUP1 REVERT JUMPDEST POP PUSH1 0x0 SLOAD PUSH1 0x40 MLOAD PUSH1 0x1 PUSH1 0x1 PUSH1 0xA0 SHL SUB SWAP1 SWAP2 AND DUP2 MSTORE PUSH1 0x20 ADD PUSH2 0xD6 JUMP JUMPDEST CALLVALUE DUP1 ISZERO PUSH2 0x18A JUMPI PUSH1 0x0 DUP1 REVERT JUMPDEST POP PUSH2 0xCC PUSH1 0x2 SLOAD DUP2 JUMP JUMPDEST CALLVALUE DUP1 ISZERO PUSH2 0x1A0 JUMPI PUSH1 0x0 DUP1 REVERT JUMPDEST POP PUSH2 0xCC PUSH2 0x1AF CALLDATASIZE PUSH1 0x4 PUSH2 0x610 JUMP JUMPDEST PUSH1 0x3 PUSH1 0x20 MSTORE PUSH1 0x0 SWAP1 DUP2 MSTORE PUSH1 0x40 SWAP1 KECCAK256 SLOAD DUP2 JUMP JUMPDEST CALLVALUE DUP1 ISZERO PUSH2 0x1CD JUMPI PUSH1 0x0 DUP1 REVERT JUMPDEST POP PUSH2 0xFF PUSH2 0x1DC CALLDATASIZE PUSH1 0x4 PUSH2 0x5F7 JUMP JUMPDEST PUSH2 0x43C JUMP JUMPDEST CALLVALUE DUP1 ISZERO PUSH2 0x1ED JUMPI PUSH1 0x0 DUP1 REVERT JUMPDEST POP PUSH2 0xCC PUSH1 0x1 SLOAD DUP2 JUMP JUMPDEST CALLVALUE DUP1 ISZERO PUSH2 0x203 JUMPI PUSH1 0x0 DUP1 REVERT JUMPDEST POP PUSH2 0xFF PUSH2 0x212 CALLDATASIZE PUSH1 0x4 PUSH2 0x610 JUMP JUMPDEST PUSH2 0x449 JUMP JUMPDEST CALLVALUE DUP1 ISZERO PUSH2 0x223 JUMPI PUSH1 0x0 DUP1 REVERT JUMPDEST POP PUSH2 0xFF PUSH2 0x232 CALLDATASIZE PUSH1 0x4 PUSH2 0x610 JUMP JUMPDEST PUSH2 0x525 JUMP JUMPDEST PUSH1 0x0 PUSH1 0x1 SLOAD SELFBALANCE PUSH2 0x247 SWAP2 SWAP1 PUSH2 0x639 JUMP JUMPDEST SWAP1 POP SWAP1 JUMP JUMPDEST PUSH2 0x254 PUSH2 0x563 JUMP JUMPDEST PUSH1 0x2 SSTORE JUMP JUMPDEST PUSH1 0x1 PUSH1 0x1 PUSH1 0xA0 SHL SUB DUP2 AND PUSH1 0x0 SWAP1 DUP2 MSTORE PUSH1 0x3 PUSH1 0x20 MSTORE PUSH1 0x40 DUP2 KECCAK256 SLOAD TIMESTAMP LT PUSH2 0x2C4 JUMPI PUSH1 0x1 PUSH1 0x1 PUSH1 0xA0 SHL SUB DUP3 AND PUSH1 0x0 SWAP1 DUP2 MSTORE PUSH1 0x3 PUSH1 0x20 MSTORE PUSH1 0x40 DUP2 KECCAK256 SLOAD PUSH2 0x29B SWAP1 TIMESTAMP PUSH2 0x65B JUMP JUMPDEST SWAP1 POP PUSH1 0x2 SLOAD DUP2 LT PUSH2 0x2AF JUMPI POP PUSH1 0x0 SWAP3 SWAP2 POP POP JUMP JUMPDEST DUP1 PUSH1 0x2 SLOAD PUSH2 0x2BD SWAP2 SWAP1 PUSH2 0x65B JUMP JUMPDEST SWAP4 SWAP3 POP POP POP JUMP JUMPDEST POP PUSH1 0x0 SWAP2 SWAP1 POP JUMP JUMPDEST PUSH1 0x1 PUSH1 0x1 PUSH1 0xA0 SHL SUB DUP2 AND PUSH1 0x0 SWAP1 DUP2 MSTORE PUSH1 0x3 PUSH1 0x20 MSTORE PUSH1 0x40 SWAP1 KECCAK256 SLOAD PUSH2 0x2EE SWAP1 PUSH2 0x590 JUMP JUMPDEST PUSH2 0x34B JUMPI PUSH1 0x40 MLOAD PUSH3 0x461BCD PUSH1 0xE5 SHL DUP2 MSTORE PUSH1 0x20 PUSH1 0x4 DUP3 ADD MSTORE PUSH1 0x23 PUSH1 0x24 DUP3 ADD MSTORE PUSH32 0x416C726561647920636C61696D656420696E20746865206C617374203234686F PUSH1 0x44 DUP3 ADD MSTORE PUSH3 0x757273 PUSH1 0xE8 SHL PUSH1 0x64 DUP3 ADD MSTORE PUSH1 0x84 ADD JUMPDEST PUSH1 0x40 MLOAD DUP1 SWAP2 SUB SWAP1 REVERT JUMPDEST PUSH1 0x1 SLOAD PUSH1 0x40 MLOAD PUSH1 0x0 SWAP2 PUSH1 0x1 PUSH1 0x1 PUSH1 0xA0 SHL SUB DUP5 AND SWAP2 DUP4 DUP2 DUP2 DUP2 DUP6 DUP8 GAS CALL SWAP3 POP POP POP RETURNDATASIZE DUP1 PUSH1 0x0 DUP2 EQ PUSH2 0x397 JUMPI PUSH1 0x40 MLOAD SWAP2 POP PUSH1 0x1F NOT PUSH1 0x3F RETURNDATASIZE ADD AND DUP3 ADD PUSH1 0x40 MSTORE RETURNDATASIZE DUP3 MSTORE RETURNDATASIZE PUSH1 0x0 PUSH1 0x20 DUP5 ADD RETURNDATACOPY PUSH2 0x39C JUMP JUMPDEST PUSH1 0x60 SWAP2 POP JUMPDEST POP POP SWAP1 POP DUP1 PUSH2 0x3E3 JUMPI PUSH1 0x40 MLOAD PUSH3 0x461BCD PUSH1 0xE5 SHL DUP2 MSTORE PUSH1 0x20 PUSH1 0x4 DUP3 ADD MSTORE PUSH1 0x13 PUSH1 0x24 DUP3 ADD MSTORE PUSH19 0x8CC2D2D8CAC840C8E4D2E0E0D2DCCE408AA89 PUSH1 0x6B SHL PUSH1 0x44 DUP3 ADD MSTORE PUSH1 0x64 ADD PUSH2 0x342 JUMP JUMPDEST PUSH1 0x1 PUSH1 0x1 PUSH1 0xA0 SHL SUB DUP3 AND PUSH1 0x0 DUP2 DUP2 MSTORE PUSH1 0x3 PUSH1 0x20 MSTORE PUSH1 0x40 DUP1 DUP3 KECCAK256 TIMESTAMP SWAP1 SSTORE MLOAD PUSH32 0x15B77122E87B6C2A7A9AFCD86D718FE489828E6FD4D686AEF3B823179AB04DBF SWAP2 SWAP1 LOG2 POP POP JUMP JUMPDEST PUSH2 0x430 PUSH2 0x563 JUMP JUMPDEST PUSH2 0x43A PUSH1 0x0 PUSH2 0x5A7 JUMP JUMPDEST JUMP JUMPDEST PUSH2 0x444 PUSH2 0x563 JUMP JUMPDEST PUSH1 0x1 SSTORE JUMP JUMPDEST PUSH2 0x451 PUSH2 0x563 JUMP JUMPDEST PUSH1 0x0 DUP2 PUSH1 0x1 PUSH1 0x1 PUSH1 0xA0 SHL SUB AND SELFBALANCE PUSH1 0x40 MLOAD PUSH1 0x0 PUSH1 0x40 MLOAD DUP1 DUP4 SUB DUP2 DUP6 DUP8 GAS CALL SWAP3 POP POP POP RETURNDATASIZE DUP1 PUSH1 0x0 DUP2 EQ PUSH2 0x49E JUMPI PUSH1 0x40 MLOAD SWAP2 POP PUSH1 0x1F NOT PUSH1 0x3F RETURNDATASIZE ADD AND DUP3 ADD PUSH1 0x40 MSTORE RETURNDATASIZE DUP3 MSTORE RETURNDATASIZE PUSH1 0x0 PUSH1 0x20 DUP5 ADD RETURNDATACOPY PUSH2 0x4A3 JUMP JUMPDEST PUSH1 0x60 SWAP2 POP JUMPDEST POP POP SWAP1 POP DUP1 PUSH2 0x4ED JUMPI PUSH1 0x40 MLOAD PUSH3 0x461BCD PUSH1 0xE5 SHL DUP2 MSTORE PUSH1 0x20 PUSH1 0x4 DUP3 ADD MSTORE PUSH1 0x16 PUSH1 0x24 DUP3 ADD MSTORE PUSH22 0x11985A5B195908191C985A5B9A5B99C811985D58D95D PUSH1 0x52 SHL PUSH1 0x44 DUP3 ADD MSTORE PUSH1 0x64 ADD PUSH2 0x342 JUMP JUMPDEST PUSH1 0x40 MLOAD PUSH1 0x1 PUSH1 0x1 PUSH1 0xA0 SHL SUB DUP4 AND SWAP1 PUSH32 0x7C8FC2D32492EA30DC289F81F32EBD6E1BCB12644F56039A3A274A924DECC4A1 SWAP1 PUSH1 0x0 SWAP1 LOG2 POP POP JUMP JUMPDEST PUSH2 0x52D PUSH2 0x563 JUMP JUMPDEST PUSH1 0x1 PUSH1 0x1 PUSH1 0xA0 SHL SUB DUP2 AND PUSH2 0x557 JUMPI PUSH1 0x40 MLOAD PUSH4 0x1E4FBDF7 PUSH1 0xE0 SHL DUP2 MSTORE PUSH1 0x0 PUSH1 0x4 DUP3 ADD MSTORE PUSH1 0x24 ADD PUSH2 0x342 JUMP JUMPDEST PUSH2 0x560 DUP2 PUSH2 0x5A7 JUMP JUMPDEST POP JUMP JUMPDEST PUSH1 0x0 SLOAD PUSH1 0x1 PUSH1 0x1 PUSH1 0xA0 SHL SUB AND CALLER EQ PUSH2 0x43A JUMPI PUSH1 0x40 MLOAD PUSH4 0x118CDAA7 PUSH1 0xE0 SHL DUP2 MSTORE CALLER PUSH1 0x4 DUP3 ADD MSTORE PUSH1 0x24 ADD PUSH2 0x342 JUMP JUMPDEST PUSH1 0x2 SLOAD PUSH1 0x0 SWAP1 PUSH2 0x5A0 DUP4 TIMESTAMP PUSH2 0x65B JUMP JUMPDEST GT SWAP3 SWAP2 POP POP JUMP JUMPDEST PUSH1 0x0 DUP1 SLOAD PUSH1 0x1 PUSH1 0x1 PUSH1 0xA0 SHL SUB DUP4 DUP2 AND PUSH1 0x1 PUSH1 0x1 PUSH1 0xA0 SHL SUB NOT DUP4 AND DUP2 OR DUP5 SSTORE PUSH1 0x40 MLOAD SWAP2 SWAP1 SWAP3 AND SWAP3 DUP4 SWAP2 PUSH32 0x8BE0079C531659141344CD1FD0A4F28419497F9722A3DAAFE3B4186F6B6457E0 SWAP2 SWAP1 LOG3 POP POP JUMP JUMPDEST PUSH1 0x0 PUSH1 0x20 DUP3 DUP5 SUB SLT ISZERO PUSH2 0x609 JUMPI PUSH1 0x0 DUP1 REVERT JUMPDEST POP CALLDATALOAD SWAP2 SWAP1 POP JUMP JUMPDEST PUSH1 0x0 PUSH1 0x20 DUP3 DUP5 SUB SLT ISZERO PUSH2 0x622 JUMPI PUSH1 0x0 DUP1 REVERT JUMPDEST DUP2 CALLDATALOAD PUSH1 0x1 PUSH1 0x1 PUSH1 0xA0 SHL SUB DUP2 AND DUP2 EQ PUSH2 0x2BD JUMPI PUSH1 0x0 DUP1 REVERT JUMPDEST PUSH1 0x0 DUP3 PUSH2 0x656 JUMPI PUSH4 0x4E487B71 PUSH1 0xE0 SHL PUSH1 0x0 MSTORE PUSH1 0x12 PUSH1 0x4 MSTORE PUSH1 0x24 PUSH1 0x0 REVERT JUMPDEST POP DIV SWAP1 JUMP JUMPDEST DUP2 DUP2 SUB DUP2 DUP2 GT ISZERO PUSH2 0x67C JUMPI PUSH4 0x4E487B71 PUSH1 0xE0 SHL PUSH1 0x0 MSTORE PUSH1 0x11 PUSH1 0x4 MSTORE PUSH1 0x24 PUSH1 0x0 REVERT JUMPDEST SWAP3 SWAP2 POP POP JUMP INVALID LOG2 PUSH5 0x6970667358 0x22 SLT KECCAK256 0xB2 0xDC TIMESTAMP ADD LOG1 0xDB 0xC0 SLT 0xDD SSTORE ORIGIN SIGNEXTEND PUSH2 0x5873 0xD8 0x1E 0xD1 REVERT SWAP10 0xF7 0xB2 GAS 0xEE 0xBC 0xBC NUMBER DUP15 0xCE CALLCODE 0xE1 0xC4 PUSH5 0x736F6C6343 STOP ADDMOD EQ STOP CALLER "
        },
        "methodIdentifiers": {
          "DRIP_AMOUNT()": "e98890a7",
          "DRIP_PERIOD_SECONDS()": "9b1f7f97",
          "availableDrips()": "24cf0771",
          "claims(address)": "c6788bdd",
          "drain(address)": "ece53132",
          "drip(address)": "67a5cd06",
          "nextDrip(address)": "4dfaf775",
          "owner()": "8da5cb5b",
          "renounceOwnership()": "715018a6",
          "setDripAmounts(uint256)": "d6b25846",
          "setDripPeriod(uint256)": "39af961b",
          "transferOwnership(address)": "f2fde38b"
        }
      }
    }
  }
}